{
  "_format": "hh-sol-artifact-1",
  "contractName": "Web3RSVP",
  "sourceName": "contracts/Web3RSVP.sol",
  "abi": [
    {
      "anonymous": false,
      "inputs": [
        {
          "indexed": false,
          "internalType": "bytes32",
          "name": "eventID",
          "type": "bytes32"
        },
        {
          "indexed": false,
          "internalType": "address",
          "name": "attendeeAddress",
          "type": "address"
        }
      ],
      "name": "ConfirmedAttendee",
      "type": "event"
    },
    {
      "anonymous": false,
      "inputs": [
        {
          "indexed": false,
          "internalType": "bytes32",
          "name": "eventID",
          "type": "bytes32"
        }
      ],
      "name": "DepositsPaidOut",
      "type": "event"
    },
    {
      "anonymous": false,
      "inputs": [
        {
          "indexed": false,
          "internalType": "bytes32",
          "name": "eventID",
          "type": "bytes32"
        },
        {
          "indexed": false,
          "internalType": "address",
          "name": "creatorAddress",
          "type": "address"
        },
        {
          "indexed": false,
          "internalType": "uint256",
          "name": "eventTimestamp",
          "type": "uint256"
        },
        {
          "indexed": false,
          "internalType": "uint256",
          "name": "maxCapacity",
          "type": "uint256"
        },
        {
          "indexed": false,
          "internalType": "uint256",
          "name": "deposit",
          "type": "uint256"
        },
        {
          "indexed": false,
          "internalType": "string",
          "name": "eventDataCID",
          "type": "string"
        }
      ],
      "name": "NewEventCreated",
      "type": "event"
    },
    {
      "anonymous": false,
      "inputs": [
        {
          "indexed": false,
          "internalType": "bytes32",
          "name": "eventID",
          "type": "bytes32"
        },
        {
          "indexed": false,
          "internalType": "address",
          "name": "attendeeAddress",
          "type": "address"
        }
      ],
      "name": "NewRSVP",
      "type": "event"
    },
    {
      "inputs": [
        {
          "internalType": "uint256",
          "name": "eventTimestamp",
          "type": "uint256"
        },
        {
          "internalType": "uint256",
          "name": "deposit",
          "type": "uint256"
        },
        {
          "internalType": "uint256",
          "name": "maxCapacity",
          "type": "uint256"
        },
        {
          "internalType": "string",
          "name": "eventDataCID",
          "type": "string"
        }
      ],
      "name": "CreateNewEvent",
      "outputs": [],
      "stateMutability": "nonpayable",
      "type": "function"
    },
    {
      "inputs": [
        {
          "internalType": "bytes32",
          "name": "eventId",
          "type": "bytes32"
        }
      ],
      "name": "confirmAllAttendees",
      "outputs": [],
      "stateMutability": "nonpayable",
      "type": "function"
    },
    {
      "inputs": [
        {
          "internalType": "bytes32",
          "name": "eventId",
          "type": "bytes32"
        },
        {
          "internalType": "address",
          "name": "attendee",
          "type": "address"
        }
      ],
      "name": "confirmAttendee",
      "outputs": [],
      "stateMutability": "nonpayable",
      "type": "function"
    },
    {
      "inputs": [
        {
          "internalType": "bytes32",
          "name": "eventId",
          "type": "bytes32"
        }
      ],
      "name": "createNewRSVP",
      "outputs": [],
      "stateMutability": "payable",
      "type": "function"
    },
    {
      "inputs": [
        {
          "internalType": "bytes32",
          "name": "",
          "type": "bytes32"
        }
      ],
      "name": "idToEvent",
      "outputs": [
        {
          "internalType": "bytes32",
          "name": "eventId",
          "type": "bytes32"
        },
        {
          "internalType": "string",
          "name": "eventDataCID",
          "type": "string"
        },
        {
          "internalType": "address",
          "name": "eventOwner",
          "type": "address"
        },
        {
          "internalType": "uint256",
          "name": "eventTimestamp",
          "type": "uint256"
        },
        {
          "internalType": "uint256",
          "name": "deposit",
          "type": "uint256"
        },
        {
          "internalType": "uint256",
          "name": "maxCapacity",
          "type": "uint256"
        },
        {
          "internalType": "bool",
          "name": "paidOut",
          "type": "bool"
        }
      ],
      "stateMutability": "view",
      "type": "function"
    },
    {
      "inputs": [
        {
          "internalType": "bytes32",
          "name": "eventId",
          "type": "bytes32"
        }
      ],
      "name": "withdrawUnclaimedDeposits",
      "outputs": [],
      "stateMutability": "nonpayable",
      "type": "function"
    }
  ],
  "bytecode": "0x608060405234801561001057600080fd5b5061225c806100206000396000f3fe6080604052600436106100555760003560e01c806317f0165a1461005a5780636dcdf2cd14610076578063797475711461009f578063909ef021146100c8578063a10ed16e1461010b578063acdbe01214610134575b600080fd5b610074600480360381019061006f9190611564565b61015d565b005b34801561008257600080fd5b5061009d600480360381019061009891906115ef565b6103ca565b005b3480156100ab57600080fd5b506100c660048036038101906100c19190611564565b6108a3565b005b3480156100d457600080fd5b506100ef60048036038101906100ea9190611564565b610d5b565b604051610102979695949392919061171a565b60405180910390f35b34801561011757600080fd5b50610132600480360381019061012d9190611821565b610e52565b005b34801561014057600080fd5b5061015b60048036038101906101569190611564565b6110c6565b005b60008060008381526020019081526020016000209050806004015434146101b9576040517f08c379a00000000000000000000000000000000000000000000000000000000081526004016101b0906118f5565b60405180910390fd5b8060030154421115610200576040517f08c379a00000000000000000000000000000000000000000000000000000000081526004016101f790611961565b60405180910390fd5b806005015481600601805490501061024d576040517f08c379a0000000000000000000000000000000000000000000000000000000008152600401610244906119cd565b60405180910390fd5b60005b81600601805490508160ff161015610327573373ffffffffffffffffffffffffffffffffffffffff16826006018260ff1681548110610292576102916119ed565b5b9060005260206000200160009054906101000a900473ffffffffffffffffffffffffffffffffffffffff1673ffffffffffffffffffffffffffffffffffffffff161415610314576040517f08c379a000000000000000000000000000000000000000000000000000000000815260040161030b90611a68565b60405180910390fd5b808061031f90611ac4565b915050610250565b5080600601339080600181540180825580915050600190039060005260206000200160009091909190916101000a81548173ffffffffffffffffffffffffffffffffffffffff021916908373ffffffffffffffffffffffffffffffffffffffff1602179055507fb79f4240bbdd272d98e02a5db7f0cf156e5fc000961c517670a26eeeec63ed9082336040516103be929190611aee565b60405180910390a15050565b600080600084815260200190815260200160002090508060020160009054906101000a900473ffffffffffffffffffffffffffffffffffffffff1673ffffffffffffffffffffffffffffffffffffffff163373ffffffffffffffffffffffffffffffffffffffff1614610472576040517f08c379a000000000000000000000000000000000000000000000000000000000815260040161046990611b63565b60405180910390fd5b600080600090505b82600601805490508160ff16101561055d578373ffffffffffffffffffffffffffffffffffffffff16836006018260ff16815481106104bc576104bb6119ed565b5b9060005260206000200160009054906101000a900473ffffffffffffffffffffffffffffffffffffffff1673ffffffffffffffffffffffffffffffffffffffff16141561054a57826006018160ff168154811061051c5761051b6119ed565b5b9060005260206000200160009054906101000a900473ffffffffffffffffffffffffffffffffffffffff1691505b808061055590611ac4565b91505061047a565b508273ffffffffffffffffffffffffffffffffffffffff168173ffffffffffffffffffffffffffffffffffffffff16146105cc576040517f08c379a00000000000000000000000000000000000000000000000000000000081526004016105c390611bcf565b60405180910390fd5b60005b82600701805490508160ff1610156106a6578373ffffffffffffffffffffffffffffffffffffffff16836007018260ff1681548110610611576106106119ed565b5b9060005260206000200160009054906101000a900473ffffffffffffffffffffffffffffffffffffffff1673ffffffffffffffffffffffffffffffffffffffff161415610693576040517f08c379a000000000000000000000000000000000000000000000000000000000815260040161068a90611c3b565b60405180910390fd5b808061069e90611ac4565b9150506105cf565b50600015158260080160009054906101000a900460ff161515146106ff576040517f08c379a00000000000000000000000000000000000000000000000000000000081526004016106f690611ca7565b60405180910390fd5b81600701839080600181540180825580915050600190039060005260206000200160009091909190916101000a81548173ffffffffffffffffffffffffffffffffffffffff021916908373ffffffffffffffffffffffffffffffffffffffff16021790555060008373ffffffffffffffffffffffffffffffffffffffff16836004015460405161078e90611cf8565b60006040518083038185875af1925050503d80600081146107cb576040519150601f19603f3d011682016040523d82523d6000602084013e6107d0565b606091505b505090508061082357826007018054806107ed576107ec611d0d565b5b6001900381819060005260206000200160006101000a81549073ffffffffffffffffffffffffffffffffffffffff021916905590555b80610863576040517f08c379a000000000000000000000000000000000000000000000000000000000815260040161085a90611d88565b60405180910390fd5b7ff8d1583a733d83bdd3ef5464129d0a95a36d62b382d31c6d0467a61f4264381b8585604051610894929190611aee565b60405180910390a15050505050565b600080600083815260200190815260200160002060405180610120016040529081600082015481526020016001820180546108dd90611dd7565b80601f016020809104026020016040519081016040528092919081815260200182805461090990611dd7565b80156109565780601f1061092b57610100808354040283529160200191610956565b820191906000526020600020905b81548152906001019060200180831161093957829003601f168201915b505050505081526020016002820160009054906101000a900473ffffffffffffffffffffffffffffffffffffffff1673ffffffffffffffffffffffffffffffffffffffff1673ffffffffffffffffffffffffffffffffffffffff16815260200160038201548152602001600482015481526020016005820154815260200160068201805480602002602001604051908101604052809291908181526020018280548015610a5857602002820191906000526020600020905b8160009054906101000a900473ffffffffffffffffffffffffffffffffffffffff1673ffffffffffffffffffffffffffffffffffffffff1681526020019060010190808311610a0e575b5050505050815260200160078201805480602002602001604051908101604052809291908181526020018280548015610ae657602002820191906000526020600020905b8160009054906101000a900473ffffffffffffffffffffffffffffffffffffffff1673ffffffffffffffffffffffffffffffffffffffff1681526020019060010190808311610a9c575b505050505081526020016008820160009054906101000a900460ff161515151581525050905080610100015115610b52576040517f08c379a0000000000000000000000000000000000000000000000000000000008152600401610b4990611e55565b60405180910390fd5b62093a808160600151610b659190611e75565b421015610ba7576040517f08c379a0000000000000000000000000000000000000000000000000000000008152600401610b9e90611f17565b60405180910390fd5b806040015173ffffffffffffffffffffffffffffffffffffffff163373ffffffffffffffffffffffffffffffffffffffff1614610c19576040517f08c379a0000000000000000000000000000000000000000000000000000000008152600401610c1090611f83565b60405180910390fd5b60008160e00151518260c0015151610c319190611fa3565b90506000826080015182610c459190611fd7565b905060018361010001901515908115158152505060003373ffffffffffffffffffffffffffffffffffffffff1682604051610c7f90611cf8565b60006040518083038185875af1925050503d8060008114610cbc576040519150601f19603f3d011682016040523d82523d6000602084013e610cc1565b606091505b5050905080610cdd576000846101000190151590811515815250505b80610d1d576040517f08c379a0000000000000000000000000000000000000000000000000000000008152600401610d1490611d88565b60405180910390fd5b7f393073ea1365f611c3d2f240c992960d2b99dc81715555d3fc40fc55ba80af9c85604051610d4c9190612031565b60405180910390a15050505050565b6000602052806000526040600020600091509050806000015490806001018054610d8490611dd7565b80601f0160208091040260200160405190810160405280929190818152602001828054610db090611dd7565b8015610dfd5780601f10610dd257610100808354040283529160200191610dfd565b820191906000526020600020905b815481529060010190602001808311610de057829003601f168201915b5050505050908060020160009054906101000a900473ffffffffffffffffffffffffffffffffffffffff16908060030154908060040154908060050154908060080160009054906101000a900460ff16905087565b60003330878787604051602001610e6d9594939291906120b5565b60405160208183030381529060405280519060200120905060008060008381526020019081526020016000206003015414610edd576040517f08c379a0000000000000000000000000000000000000000000000000000000008152600401610ed490612160565b60405180910390fd5b60608060405180610120016040528084815260200186868080601f016020809104026020016040519081016040528093929190818152602001838380828437600081840152601f19601f8201169050808301925050505050505081526020013373ffffffffffffffffffffffffffffffffffffffff16815260200189815260200188815260200187815260200183815260200182815260200160001515815250600080858152602001908152602001600020600082015181600001556020820151816001019080519060200190610fb59291906113f7565b5060408201518160020160006101000a81548173ffffffffffffffffffffffffffffffffffffffff021916908373ffffffffffffffffffffffffffffffffffffffff160217905550606082015181600301556080820151816004015560a0820151816005015560c082015181600601908051906020019061103792919061147d565b5060e082015181600701908051906020019061105492919061147d565b506101008201518160080160006101000a81548160ff0219169083151502179055509050507f2553138c3f9c9008f266dbdbe9fc64f5b71e098d06ef714a190a65a8b9fc6bf383338a898b8a8a6040516110b497969594939291906121bc565b60405180910390a15050505050505050565b6000806000838152602001908152602001600020604051806101200160405290816000820154815260200160018201805461110090611dd7565b80601f016020809104026020016040519081016040528092919081815260200182805461112c90611dd7565b80156111795780601f1061114e57610100808354040283529160200191611179565b820191906000526020600020905b81548152906001019060200180831161115c57829003601f168201915b505050505081526020016002820160009054906101000a900473ffffffffffffffffffffffffffffffffffffffff1673ffffffffffffffffffffffffffffffffffffffff1673ffffffffffffffffffffffffffffffffffffffff1681526020016003820154815260200160048201548152602001600582015481526020016006820180548060200260200160405190810160405280929190818152602001828054801561127b57602002820191906000526020600020905b8160009054906101000a900473ffffffffffffffffffffffffffffffffffffffff1673ffffffffffffffffffffffffffffffffffffffff1681526020019060010190808311611231575b505050505081526020016007820180548060200260200160405190810160405280929190818152602001828054801561130957602002820191906000526020600020905b8160009054906101000a900473ffffffffffffffffffffffffffffffffffffffff1673ffffffffffffffffffffffffffffffffffffffff16815260200190600101908083116112bf575b505050505081526020016008820160009054906101000a900460ff1615151515815250509050806040015173ffffffffffffffffffffffffffffffffffffffff163373ffffffffffffffffffffffffffffffffffffffff16146113a1576040517f08c379a000000000000000000000000000000000000000000000000000000000815260040161139890611b63565b60405180910390fd5b60005b8160c00151518160ff1610156113f2576113df838360c001518360ff16815181106113d2576113d16119ed565b5b60200260200101516103ca565b80806113ea90611ac4565b9150506113a4565b505050565b82805461140390611dd7565b90600052602060002090601f016020900481019282611425576000855561146c565b82601f1061143e57805160ff191683800117855561146c565b8280016001018555821561146c579182015b8281111561146b578251825591602001919060010190611450565b5b5090506114799190611507565b5090565b8280548282559060005260206000209081019282156114f6579160200282015b828111156114f55782518260006101000a81548173ffffffffffffffffffffffffffffffffffffffff021916908373ffffffffffffffffffffffffffffffffffffffff1602179055509160200191906001019061149d565b5b5090506115039190611507565b5090565b5b80821115611520576000816000905550600101611508565b5090565b600080fd5b600080fd5b6000819050919050565b6115418161152e565b811461154c57600080fd5b50565b60008135905061155e81611538565b92915050565b60006020828403121561157a57611579611524565b5b60006115888482850161154f565b91505092915050565b600073ffffffffffffffffffffffffffffffffffffffff82169050919050565b60006115bc82611591565b9050919050565b6115cc816115b1565b81146115d757600080fd5b50565b6000813590506115e9816115c3565b92915050565b6000806040838503121561160657611605611524565b5b60006116148582860161154f565b9250506020611625858286016115da565b9150509250929050565b6116388161152e565b82525050565b600081519050919050565b600082825260208201905092915050565b60005b8381101561167857808201518184015260208101905061165d565b83811115611687576000848401525b50505050565b6000601f19601f8301169050919050565b60006116a98261163e565b6116b38185611649565b93506116c381856020860161165a565b6116cc8161168d565b840191505092915050565b6116e0816115b1565b82525050565b6000819050919050565b6116f9816116e6565b82525050565b60008115159050919050565b611714816116ff565b82525050565b600060e08201905061172f600083018a61162f565b8181036020830152611741818961169e565b905061175060408301886116d7565b61175d60608301876116f0565b61176a60808301866116f0565b61177760a08301856116f0565b61178460c083018461170b565b98975050505050505050565b611799816116e6565b81146117a457600080fd5b50565b6000813590506117b681611790565b92915050565b600080fd5b600080fd5b600080fd5b60008083601f8401126117e1576117e06117bc565b5b8235905067ffffffffffffffff8111156117fe576117fd6117c1565b5b60208301915083600182028301111561181a576118196117c6565b5b9250929050565b60008060008060006080868803121561183d5761183c611524565b5b600061184b888289016117a7565b955050602061185c888289016117a7565b945050604061186d888289016117a7565b935050606086013567ffffffffffffffff81111561188e5761188d611529565b5b61189a888289016117cb565b92509250509295509295909350565b7f4e4f5420454e4f55474800000000000000000000000000000000000000000000600082015250565b60006118df600a83611649565b91506118ea826118a9565b602082019050919050565b6000602082019050818103600083015261190e816118d2565b9050919050565b7f414c52454144592048415050454e454400000000000000000000000000000000600082015250565b600061194b601083611649565b915061195682611915565b602082019050919050565b6000602082019050818103600083015261197a8161193e565b9050919050565b7f54686973206576656e7420686173207265616368656420636170616369747900600082015250565b60006119b7601f83611649565b91506119c282611981565b602082019050919050565b600060208201905081810360008301526119e6816119aa565b9050919050565b7f4e487b7100000000000000000000000000000000000000000000000000000000600052603260045260246000fd5b7f414c524541445920434f4e4649524d4544000000000000000000000000000000600082015250565b6000611a52601183611649565b9150611a5d82611a1c565b602082019050919050565b60006020820190508181036000830152611a8181611a45565b9050919050565b7f4e487b7100000000000000000000000000000000000000000000000000000000600052601160045260246000fd5b600060ff82169050919050565b6000611acf82611ab7565b915060ff821415611ae357611ae2611a88565b5b600182019050919050565b6000604082019050611b03600083018561162f565b611b1060208301846116d7565b9392505050565b7f4e4f5420415554484f52495a4544000000000000000000000000000000000000600082015250565b6000611b4d600e83611649565b9150611b5882611b17565b602082019050919050565b60006020820190508181036000830152611b7c81611b40565b9050919050565b7f4e4f205253565020544f20434f4e4649524d0000000000000000000000000000600082015250565b6000611bb9601283611649565b9150611bc482611b83565b602082019050919050565b60006020820190508181036000830152611be881611bac565b9050919050565b7f414c524541445920434c41494d45440000000000000000000000000000000000600082015250565b6000611c25600f83611649565b9150611c3082611bef565b602082019050919050565b60006020820190508181036000830152611c5481611c18565b9050919050565b7f414c52454144592050414944204f555400000000000000000000000000000000600082015250565b6000611c91601083611649565b9150611c9c82611c5b565b602082019050919050565b60006020820190508181036000830152611cc081611c84565b9050919050565b600081905092915050565b50565b6000611ce2600083611cc7565b9150611ced82611cd2565b600082019050919050565b6000611d0382611cd5565b9150819050919050565b7f4e487b7100000000000000000000000000000000000000000000000000000000600052603160045260246000fd5b7f4661696c656420746f2073656e64204574686572000000000000000000000000600082015250565b6000611d72601483611649565b9150611d7d82611d3c565b602082019050919050565b60006020820190508181036000830152611da181611d65565b9050919050565b7f4e487b7100000000000000000000000000000000000000000000000000000000600052602260045260246000fd5b60006002820490506001821680611def57607f821691505b60208210811415611e0357611e02611da8565b5b50919050565b7f414c524541445920504149440000000000000000000000000000000000000000600082015250565b6000611e3f600c83611649565b9150611e4a82611e09565b602082019050919050565b60006020820190508181036000830152611e6e81611e32565b9050919050565b6000611e80826116e6565b9150611e8b836116e6565b9250827fffffffffffffffffffffffffffffffffffffffffffffffffffffffffffffffff03821115611ec057611ebf611a88565b5b828201905092915050565b7f544f4f204541524c590000000000000000000000000000000000000000000000600082015250565b6000611f01600983611649565b9150611f0c82611ecb565b602082019050919050565b60006020820190508181036000830152611f3081611ef4565b9050919050565b7f4d555354204245204556454e54204f574e455200000000000000000000000000600082015250565b6000611f6d601383611649565b9150611f7882611f37565b602082019050919050565b60006020820190508181036000830152611f9c81611f60565b9050919050565b6000611fae826116e6565b9150611fb9836116e6565b925082821015611fcc57611fcb611a88565b5b828203905092915050565b6000611fe2826116e6565b9150611fed836116e6565b9250817fffffffffffffffffffffffffffffffffffffffffffffffffffffffffffffffff048311821515161561202657612025611a88565b5b828202905092915050565b6000602082019050612046600083018461162f565b92915050565b60008160601b9050919050565b60006120648261204c565b9050919050565b600061207682612059565b9050919050565b61208e612089826115b1565b61206b565b82525050565b6000819050919050565b6120af6120aa826116e6565b612094565b82525050565b60006120c1828861207d565b6014820191506120d1828761207d565b6014820191506120e1828661209e565b6020820191506120f1828561209e565b602082019150612101828461209e565b6020820191508190509695505050505050565b7f414c524541445920524547495354455245440000000000000000000000000000600082015250565b600061214a601283611649565b915061215582612114565b602082019050919050565b600060208201905081810360008301526121798161213d565b9050919050565b82818337600083830152505050565b600061219b8385611649565b93506121a8838584612180565b6121b18361168d565b840190509392505050565b600060c0820190506121d1600083018a61162f565b6121de60208301896116d7565b6121eb60408301886116f0565b6121f860608301876116f0565b61220560808301866116f0565b81810360a083015261221881848661218f565b90509897505050505050505056fea2646970667358221220bbc398078b57e828243d06e3a95bcb5514bf73a77dab5baa28a1595ecc33048164736f6c63430008090033",
  "linkReferences": {},
  "deployedLinkReferences": {}
}